{
  "abi": [
    {
      "inputs": [
        {
          "internalType": "contract ENS",
          "name": "_registry",
          "type": "address"
        },
        {
          "internalType": "address",
          "name": "_resolver",
          "type": "address"
        }
      ],
      "stateMutability": "nonpayable",
      "type": "constructor"
    },
    {
      "anonymous": false,
      "inputs": [
        {
          "indexed": true,
          "internalType": "address",
          "name": "resolverAddr",
          "type": "address"
        }
      ],
      "name": "Me3ResolverUpdated",
      "type": "event"
    },
    {
      "anonymous": false,
      "inputs": [
        {
          "indexed": true,
          "internalType": "address",
          "name": "user",
          "type": "address"
        },
        {
          "indexed": true,
          "internalType": "address",
          "name": "newOwner",
          "type": "address"
        }
      ],
      "name": "OwnerUpdated",
      "type": "event"
    },
    {
      "anonymous": false,
      "inputs": [
        {
          "indexed": true,
          "internalType": "bytes32",
          "name": "node",
          "type": "bytes32"
        },
        {
          "indexed": false,
          "internalType": "bool",
          "name": "enabled",
          "type": "bool"
        }
      ],
      "name": "ProjectStateChanged",
      "type": "event"
    },
    {
      "inputs": [
        {
          "internalType": "bytes32",
          "name": "node",
          "type": "bytes32"
        },
        {
          "internalType": "contract IAuthoriser",
          "name": "_authoriser",
          "type": "address"
        },
        {
          "internalType": "contract IRulesEngine",
          "name": "_rules",
          "type": "address"
        }
      ],
      "name": "addRootNode",
      "outputs": [],
      "stateMutability": "nonpayable",
      "type": "function"
    },
    {
      "inputs": [
        {
          "internalType": "bytes32",
          "name": "node",
          "type": "bytes32"
        },
        {
          "internalType": "string",
          "name": "label",
          "type": "string"
        }
      ],
      "name": "available",
      "outputs": [
        {
          "internalType": "bool",
          "name": "",
          "type": "bool"
        }
      ],
      "stateMutability": "view",
      "type": "function"
    },
    {
      "inputs": [],
      "name": "me3Resolver",
      "outputs": [
        {
          "internalType": "address",
          "name": "",
          "type": "address"
        }
      ],
      "stateMutability": "view",
      "type": "function"
    },
    {
      "inputs": [
        {
          "internalType": "bytes32",
          "name": "",
          "type": "bytes32"
        }
      ],
      "name": "nodeAuthorisers",
      "outputs": [
        {
          "internalType": "contract IAuthoriser",
          "name": "",
          "type": "address"
        }
      ],
      "stateMutability": "view",
      "type": "function"
    },
    {
      "inputs": [
        {
          "internalType": "bytes32",
          "name": "",
          "type": "bytes32"
        }
      ],
      "name": "nodeEnabled",
      "outputs": [
        {
          "internalType": "bool",
          "name": "",
          "type": "bool"
        }
      ],
      "stateMutability": "view",
      "type": "function"
    },
    {
      "inputs": [
        {
          "internalType": "bytes32",
          "name": "",
          "type": "bytes32"
        }
      ],
      "name": "nodeRules",
      "outputs": [
        {
          "internalType": "contract IRulesEngine",
          "name": "",
          "type": "address"
        }
      ],
      "stateMutability": "view",
      "type": "function"
    },
    {
      "inputs": [],
      "name": "owner",
      "outputs": [
        {
          "internalType": "address",
          "name": "",
          "type": "address"
        }
      ],
      "stateMutability": "view",
      "type": "function"
    },
    {
      "inputs": [
        {
          "internalType": "bytes32",
          "name": "node",
          "type": "bytes32"
        },
        {
          "internalType": "string",
          "name": "label",
          "type": "string"
        },
        {
          "internalType": "address",
          "name": "owner",
          "type": "address"
        },
        {
          "internalType": "bytes[]",
          "name": "blob",
          "type": "bytes[]"
        }
      ],
      "name": "register",
      "outputs": [],
      "stateMutability": "nonpayable",
      "type": "function"
    },
    {
      "inputs": [
        {
          "internalType": "address",
          "name": "newOwner",
          "type": "address"
        }
      ],
      "name": "setOwner",
      "outputs": [],
      "stateMutability": "nonpayable",
      "type": "function"
    },
    {
      "inputs": [
        {
          "internalType": "bytes32",
          "name": "node",
          "type": "bytes32"
        },
        {
          "internalType": "bool",
          "name": "enabled",
          "type": "bool"
        }
      ],
      "name": "setRootNodeState",
      "outputs": [],
      "stateMutability": "nonpayable",
      "type": "function"
    },
    {
      "inputs": [
        {
          "internalType": "address",
          "name": "newResolver",
          "type": "address"
        }
      ],
      "name": "updateMe3Resolver",
      "outputs": [],
      "stateMutability": "nonpayable",
      "type": "function"
    },
    {
      "inputs": [
        {
          "internalType": "bytes32",
          "name": "node",
          "type": "bytes32"
        },
        {
          "internalType": "string",
          "name": "label",
          "type": "string"
        }
      ],
      "name": "valid",
      "outputs": [
        {
          "internalType": "bool",
          "name": "",
          "type": "bool"
        }
      ],
      "stateMutability": "view",
      "type": "function"
    }
  ],
  "bytecode": {
    "object": "0x608060405234801561001057600080fd5b50604051610cd7380380610cd783398101604081905261002f916100b9565b600080546001600160a01b031916339081178255604051909182917f8292fce18fa69edf4db7b94ea2e58241df0ae57f97e0a6c9b29067028bf92d76908290a350600180546001600160a01b039384166001600160a01b031991821617909155600280549290931691161790556100f3565b6001600160a01b03811681146100b657600080fd5b50565b600080604083850312156100cc57600080fd5b82516100d7816100a1565b60208401519092506100e8816100a1565b809150509250929050565b610bd5806101026000396000f3fe608060405234801561001057600080fd5b50600436106100b45760003560e01c80637ed3b674116100715780637ed3b674146101895780638da5cb5b1461019c57806397270b57146101af578063bac805e0146101c2578063de82bc9c146101d5578063e53b47e4146101f857600080fd5b806313af4035146100b95780631a350b75146100ce5780631e56ca53146100e1578063572a979b1461010c5780635c2a963d1461011f5780637c44777514610160575b600080fd5b6100cc6100c73660046107b0565b61020b565b005b6100cc6100dc3660046107b0565b610289565b6100f76100ef36600461088c565b600092915050565b60405190151581526020015b60405180910390f35b6100f761011a36600461088c565b610353565b61014861012d3660046108d3565b6005602052600090815260409020546001600160a01b031681565b6040516001600160a01b039091168152602001610103565b61014861016e3660046108d3565b6004602052600090815260409020546001600160a01b031681565b6100cc6101973660046108fa565b6103d7565b600054610148906001600160a01b031681565b600254610148906001600160a01b031681565b6100cc6101d036600461092a565b6104e5565b6100f76101e33660046108d3565b60036020526000908152604090205460ff1681565b6100cc61020636600461096c565b610567565b6000546001600160a01b0316331461023e5760405162461bcd60e51b815260040161023590610a83565b60405180910390fd5b600080546001600160a01b0319166001600160a01b0383169081178255604051909133917f8292fce18fa69edf4db7b94ea2e58241df0ae57f97e0a6c9b29067028bf92d769190a350565b6000546001600160a01b031633146102b35760405162461bcd60e51b815260040161023590610a83565b6001600160a01b0381166103095760405162461bcd60e51b815260206004820181905260248201527f5265736f6c766572206d7573742062652061207265616c20636f6e74726163746044820152606401610235565b600280546001600160a01b0319166001600160a01b0383169081179091556040517fc135ac14f1985f6c2ea98607b26697ac22bc023d295f4e115e04582a9f12a09290600090a250565b600082815260056020526040808220549051633ec0562960e01b81526001600160a01b0390911690633ec056299061038f908590600401610af6565b602060405180830381865afa1580156103ac573d6000803e3d6000fd5b505050506040513d601f19601f820116820180604052508101906103d09190610b09565b9392505050565b6000546001600160a01b031633146104015760405162461bcd60e51b815260040161023590610a83565b6000828152600460205260409020546001600160a01b03161580159061043d57506000828152600560205260409020546001600160a01b031615155b6104895760405162461bcd60e51b815260206004820152601b60248201527f50726f6a656374206d75737420626520696e697469616c697a656400000000006044820152606401610235565b817f6bac0f11b020e29c4b910215499daad7c269562198698f94de75e3823ae6ccb8826040516104bd911515815260200190565b60405180910390a2600091825260036020526040909120805460ff1916911515919091179055565b6000546001600160a01b0316331461050f5760405162461bcd60e51b815260040161023590610a83565b600092835260046020908152604080852080546001600160a01b039586166001600160a01b0319918216179091556005835281862080549490951693169290921790925560039091529020805460ff19166001179055565b600084815260036020526040902054849060ff166105bd5760405162461bcd60e51b8152602060048201526013602482015272139bd919481a5cc81b9bdd08195b98589b1959606a1b6044820152606401610235565b60008581526004602081905260409182902054915163b4b2fc7760e01b81528792339286926001600160a01b0390921691829163b4b2fc77916106069188918891889101610b26565b602060405180830381865afa158015610623573d6000803e3d6000fd5b505050506040513d601f19601f820116820180604052508101906106479190610b09565b61068c5760405162461bcd60e51b8152602060048201526016602482015275155cd95c881a5cc81b9bdd08185d5d1a1bdc9a5cd95960521b6044820152606401610235565b6106968989610353565b6106f15760405162461bcd60e51b815260206004820152602660248201527f436865636b20776974682070726f6a65637420666f722076616c6964207375626044820152653237b6b0b4b760d11b6064820152608401610235565b6001546001600160a01b0316635ef2c7f08a6107128b805160209091012090565b60025460405160e085901b6001600160e01b0319168152600481019390935260248301919091526001600160a01b03808c16604484015216606482015262015180608482015260a401600060405180830381600087803b15801561077557600080fd5b505af1158015610789573d6000803e3d6000fd5b50505050505050505050505050565b6001600160a01b03811681146107ad57600080fd5b50565b6000602082840312156107c257600080fd5b81356103d081610798565b634e487b7160e01b600052604160045260246000fd5b604051601f8201601f1916810167ffffffffffffffff8111828210171561080c5761080c6107cd565b604052919050565b600067ffffffffffffffff83111561082e5761082e6107cd565b610841601f8401601f19166020016107e3565b905082815283838301111561085557600080fd5b828260208301376000602084830101529392505050565b600082601f83011261087d57600080fd5b6103d083833560208501610814565b6000806040838503121561089f57600080fd5b82359150602083013567ffffffffffffffff8111156108bd57600080fd5b6108c98582860161086c565b9150509250929050565b6000602082840312156108e557600080fd5b5035919050565b80151581146107ad57600080fd5b6000806040838503121561090d57600080fd5b82359150602083013561091f816108ec565b809150509250929050565b60008060006060848603121561093f57600080fd5b83359250602084013561095181610798565b9150604084013561096181610798565b809150509250925092565b6000806000806080858703121561098257600080fd5b8435935060208086013567ffffffffffffffff808211156109a257600080fd5b6109ae89838a0161086c565b955060409150818801356109c181610798565b94506060880135818111156109d557600080fd5b8801601f81018a136109e657600080fd5b8035828111156109f8576109f86107cd565b8060051b610a078682016107e3565b918252828101860191868101908d841115610a2157600080fd5b87850192505b83831015610a7157823586811115610a3f5760008081fd5b8501603f81018f13610a515760008081fd5b610a618f8a8301358a8401610814565b8352509187019190870190610a27565b9a9d999c50979a505050505050505050565b6020808252600c908201526b15539055551213d49256915160a21b604082015260600190565b6000815180845260005b81811015610acf57602081850181015186830182015201610ab3565b81811115610ae1576000602083870101525b50601f01601f19169290920160200192915050565b6020815260006103d06020830184610aa9565b600060208284031215610b1b57600080fd5b81516103d0816108ec565b600060608201858352602060018060a01b038616818501526060604085015281855180845260808601915060808160051b870101935082870160005b82811015610b9057607f19888703018452610b7e868351610aa9565b95509284019290840190600101610b62565b5093999850505050505050505056fea2646970667358221220aa006daee6ff8d45a3c6c922c14aa14b5f2ddba453af5fb1b0d6761f469908ee64736f6c634300080a0033",
    "linkReferences": {}
  },
  "methodIdentifiers": {
    "addRootNode(bytes32,address,address)": "bac805e0",
    "available(bytes32,string)": "1e56ca53",
    "me3Resolver()": "97270b57",
    "nodeAuthorisers(bytes32)": "7c447775",
    "nodeEnabled(bytes32)": "de82bc9c",
    "nodeRules(bytes32)": "5c2a963d",
    "owner()": "8da5cb5b",
    "register(bytes32,string,address,bytes[])": "e53b47e4",
    "setOwner(address)": "13af4035",
    "setRootNodeState(bytes32,bool)": "7ed3b674",
    "updateMe3Resolver(address)": "1a350b75",
    "valid(bytes32,string)": "572a979b"
  },
  "id": 35
}